:020000040800F2
:1000000028160124E5020008FB5C0008FF540008E4
:10001000F95C0008F1040008C96B0008000000004A
:10002000000000000000000000000000F7020008CF
:100030000508000800000000FB020008FD0200089F
:10004000FF020008FF020008FF020008FF0200088C
:10005000FF020008FF020008FF020008FF0200087C
:10006000FF020008FF020008FF020008A9050008BF
:10007000AB050008AD050008AF050008B105000894
:10008000B3050008B5050008FF0200080D080008C8
:10009000250800081908000831080008FF020008B8
:1000A000FF020008FF020008FF020008FF0200082C
:1000B000FF020008FF020008FF020008FF0200081C
:1000C000FF020008FF020008FF020008FF0200080C
:1000D000415F0008AF6B0008B16B0008BD6B000802
:1000E000FF020008FF02000800000000FF020008F5
:1000F000F5600008E9600008FF020008B705000885
:10010000FF020008FF020008FF020008FF020008CB
:10011000FF02000819650008D1600008DD600008D2
:10012000B9050008BB050008FF020008FF0200082F
:10013000BD050008FF020008FF020008FF020008DA
:1001400000000000000000000000000000000000AF
:10015000C9050008D5050008E1050008FF020008F0
:10016000FF020008FF020008FF020008FF0200086B
:10017000FF020008FD5C0008FF020008000000000C
:10018000FF020008FF0200081B650008FF020008CC
:10019000FF020008FF020008FF020008FF0200083B
:1001A000FF020008FF020008FF0200080000000034
:1001B000FF020008FF020008FF020008FF0200081B
:1001C000FF020008FF02000800000000000000001D
:1001D0000000000000000000FF0200080000000016
:1001E000000000000000000000000000000000000F
:1001F0000000000000000000FF020008FF020008ED
:10020000FF020008FF02000800000000FF020008D3
:10021000FF020008AD600008B9600008FF02000896
:10022000FF02000800000000FF02000800000000BC
:10023000FF020008FF02000800000000FF020008A3
:10024000FF020008FF020008FF020008FF0200088A
:10025000FF020008FF020008FF020008FF0200087A
:10026000FF020008FF020008FF020008FF0200086A
:10027000FF020008FF020008FF0200080000000063
:10028000FF020008FF020008FF020008FF0200084A
:1002900000000000FF020008FF020008000000004C
:1002A00000000000FF020008FF020008FF02000833
:1002B000AD6B0008FF020008FF0200083D080008BF
:1002C00049080008C5600008FF020008DFF810D0E8
:1002D00000F0FCF800480047556D0008AFF30080BF
:1002E000281601240648804706480047FEE7FEE737
:1002F000FEE7FEE7FEE7FEE7FEE7FEE7FEE7FEE7D6
:10030000ED5F0008CD0200082DE9F05F05460020F2
:1003100092469B4688460646814640241BE0284676
:1003200041464746224600F08AF853465A46C01ACC
:10033000914110D311461846224600F071F82D1A4B
:1003400067EB01084F4622460120002100F068F8C3
:1003500017EB00094E41201EA4F10104DFDC4846E2
:1003600031462A464346BDE8F09F40EA01039B0719
:1003700003D009E008C9121F08C0042AFAD203E01A
:1003800011F8013B00F8013B521EF9D27047D2B27E
:1003900001E000F8012B491EFBD270470022F6E76E
:1003A00010B513460A4604461946FFF7F0FF2046EB
:1003B00010BDF0B4CA17CB0F50405140C61841F1E0
:1003C00000054FEAC372314628004FF0960303D070
:1003D000B623F0BC00F04CB830460021F9E710B568
:1003E00000F0004420F00040C20DC0F3160040F4BD
:1003F00000007F2A02DA0020014610BD0021962A63
:1004000003DCC2F19602D04002E0963A00F008F810
:10041000002CF2D00023D0EB030063EB010110BDF0
:10042000202A04DB203A00FA02F1002070479140B4
:10043000C2F1200320FA03F3194390407047202AA9
:1004400004DB203A21FA02F00021704721FA02F37E
:10045000D040C2F12002914008431946704700295C
:10046000A8BF7047401C490008BF20F0010070473A
:1004700010B4B0FA80FC00FA0CF050EA010404BF9A
:1004800010BC704749B1CCF1200421FA04F411FAF0
:100490000CF118BF012121430843A3EB0C01CB1D34
:1004A0004FEA00614FEA102042BF002010BC7047A5
:1004B00000EBC35010440029A4BF10BC7047401C7F
:1004C000490008BF20F0010010BC7047064C074DE2
:1004D00006E0E06840F0010394E807009847103414
:1004E000AC42F6D3FFF7F6FE006F0008206F00085D
:1004F000FEE700007CB52A4C002008214FF4007272
:1005000004F17005C4E90020C4E9020120616A46D3
:100510006061A061E06120622888010A8DF8001006
:100520008DF80100288F010A8DF802108DF8030064
:10053000B5F87000010A8DF804108DF80500B5F8C3
:10054000A800010A8DF806108DF80700214615480D
:1005500001F03CFB40F2FF102060B5F8E0006A4675
:10056000010A8DF800108DF80100B5F81801010A94
:100570008DF802108DF80300B5F85001010A8DF8CE
:1005800004108DF80500B5F88801010A8DF80610F1
:100590008DF807002146034801F018FB7CBD0000E0
:1005A000800E002430000024704770477047704769
:1005B000704770477047704770477047014800F0B8
:1005C0005DBD000058080024014800F057BD000040
:1005D000D0080024014800F051BD00004809002463
:1005E000014800F04BBD0000C0090024294A016801
:1005F00091423AD0274A1832914236D0254A3032B9
:10060000914232D0234A483291422ED0214A603260
:1006100091422AD01F4A7832914226D01D4A903208
:10062000914222D01B4AA83291421ED01A4A9142CE
:100630001BD0194A1832914217D0174A30329142D2
:1006400013D0154A483291420FD0134A603291427A
:100650000BD0114A7832914207D00F4A9032914222
:1006600003D00D4AA832914211D1CAB21823103AD0
:10067000B2FBF3F26FF30901032A02F00703074A02
:10068000D25CC26500D9091D81650846704721F01A
:10069000FF01F9E71000024010040240646E0008F8
:1006A00030B5224A012301689142CAB21BD01F4CC7
:1006B0001434A14217D01D4C2834A14213D01B4C36
:1006C0003C34A1420FD0194C5034A1420BD0174CEE
:1006D0006434A14207D0154C7834A14203D0134CA6
:1006E0008C34A1420CD11421114C083AB2FBF1F127
:1006F0000F4A803201F01F0504EB8101AB4010E08E
:100700000C4D1824103A0D44B2FBF4F1A82D00D87A
:100710000831094A01F01F0402EB8101064AA34097
:100720008032603080E80E0030BD0000085402586E
:1007300000580258F0FBFDBF0008024010B50279D6
:10074000531E072B2DD8174C0168A1421BD0154C06
:100750001434A14217D0134C2834A14213D0114CA9
:100760003C34A1420FD00F4C5034A1420BD00D4C61
:100770006434A14207D00B4C7834A14203D0094C19
:100780008C34A14203D10849074C443102E00749A7
:10079000064C443104EB8202C0E91B21012199403F
:1007A000416710BD08540258FC580258FC0802402A
:1007B00010B583694FF0C074826A0146002053B1BE
:1007C000B3F5005F15D072B1012A0CD0022A0AD00D
:1007D000032A09D104E01AB1012A06D0022A03D162
:1007E000C96AC90100D5012010BDC96AA142FAD069
:1007F00010BD002AF7D0012AF2D0022AF3D0032A32
:10080000F3D010BD704772B6FEE70000014801F05A
:1008100033BB000030000024014801F02DBB000074
:1008200030000024014801F027BB0000D000002464
:10083000014801F021BB0000D0000024014801F074
:100840001BBB000070010024014801F015BB000033
:1008500070010024F0B503684FF6FC716D4C426BDB
:10086000D3F884508D4345EA8205C3F88450036869
:1008700053F8845F068F25F47F0545EA06451D6021
:10088000836B654D9F180268D2F888308B4343EA2A
:100890008703C2F88830026852F8883F868F23F4B5
:1008A000FE0343EA06431360066856F8A03FC26B96
:1008B0008B4307EB420243EA82033360076857F831
:1008C000A03FB0F8406023F4FE0343EA06433B60D8
:1008D000D0E9103603FB06220368D3F8B0608E43DC
:1008E00046EA8206C3F8B0600368B0F84860D3F8FF
:1008F000B07027F4FE0747EA0646C3F8B060D0E9B7
:100900001267036806FB0722D3F8AC608E4346EA01
:100910008206C3F8AC60D0E91467036806FB0722BF
:10092000D3F8F0608E4346EA8206C3F8F0600368AD
:10093000B0F85860D3F8F07027F47C1747EA064601
:10094000C3F8F0600368876D53F8C06F02EB47028D
:100950008E4346EA820119600168B0F85C20D1F844
:10096000C03023F47C1343EA0242C1F8C02001687E
:1009700090F86020D1F8C03023F07C5343EA026243
:10098000C1F8C020416B04EB8101C166826B01EBB1
:1009900082020267C36B02EBC3024267D0E91034E4
:1009A000634302EB83028267D0E91234634302EBB4
:1009B0008302C267D0E91434634302EB8302C0F8B8
:1009C0008020836D02EBC303C0F88430C46D826E57
:1009D000544303EB8403C0F88830046E544303EBA4
:1009E0008402C0F89020AA420AD9D0F89C200321A2
:1009F00042F02002C0F89C2080F898100120F0BD41
:100A0000002200E004C1D0F890308B42FAD80020D8
:100A1000F0BD000000AC0040FCD30040F0B58E6893
:100A20000C69D1E9005744EA0604DFB145F080457E
:100A30002C43866ED1E906C54F695E4391F820309C
:100A400045EA0C05B1F80CC0D0F884E0002047EA74
:100A50000363104F1D430EEB860345EA0C45E3E8A4
:100A6000024511E044EA8544E3E71418155CA678D2
:100A700094F803C094F801E0360445EA0C6446EAB1
:100A80000E252C43001D10C3CC683C5D8442ECD87D
:100A9000F0BD00006C6E00082DE9F84F044601F02F
:100AA0001FFF00903CB194F83500022806D0802149
:100AB00061650020E4E00120BDE8F88FC74DC74E16
:100AC000C649183520683036DFF81483DFF81493F0
:100AD0008842DFF814A3DFF814B32ED0A8422CD03C
:100AE000B0422AD0404528D0484526D0504524D091
:100AF000584522D0BD4A183290421ED0BC4A90427E
:100B00001BD0BB4A1832904217D0B94A30329042BB
:100B100013D0B74A483290420FD0B54A6032904263
:100B20000BD0B34A7832904207D0B14A903290420B
:100B300003D0AF4AA832904209D1026822F01E02C7
:100B400002602068426922F08002426103E002688C
:100B500022F00E02026027688F4238464DD0A8422C
:100B60004BD0B04249D0404547D0484545D050458C
:100B700043D0584541D09D4A183290423DD09C4ABE
:100B800090423AD09A4A1832904236D0984A30323F
:100B9000904232D0964A483290422ED0944A6032E7
:100BA00090422AD0924A7832904226D0904A90328F
:100BB000904222D08E4AA83290421ED08D4A904256
:100BC0001BD08C4A1432904217D08A4A2832904265
:100BD00013D0884A3C3290420FD0864A503290421D
:100BE0000BD0844A6432904207D0824A78329042D5
:100BF00003D0804A8C32974204D1206E026822F4DE
:100C00008072026075492068884228D0A84226D0A8
:100C1000B04224D0404522D0484520D050451ED077
:100C200058451CD071491831884218D07049884203
:100C300015D06F491831884211D06D493031884242
:100C40000DD06B494831884209D0694960318842EA
:100C500005D067497831884201D0654990310168F3
:100C600021F0010101600EE001F03AFE0099401A06
:100C7000052808D9202262650321002084F8351058
:100C800084F8340017E73868C007EDD1534A0121D2
:100C9000206890422ED0A8422CD0B0422AD04045A5
:100CA00028D0484526D0504524D0584522D04F4B17
:100CB000183398421ED04E4B98421BD04C4B1833E1
:100CC000984217D04A4B3033984213D0484B4833A0
:100CD00098420FD0464B603398420BD0444B783348
:100CE000984207D0424B9033984203D0404BA833F0
:100CF000984208D194F85C703F23A06D07F01F075D
:100D0000BB40836007E094F85C30A06D03F01F03E4
:100D100001FA03F34360206890424DD0A8424BD0C3
:100D2000B04249D0404547D0484545D0504543D0D2
:100D3000584541D02D4A183290423DD02C4A90421D
:100D40003AD02B4A1832904236D0294A303290425B
:100D500032D0274A483290422ED0254A6032904203
:100D60002AD0234A7832904226D0214A90329042AB
:100D700022D01F4AA83290421ED01E4A90421BD059
:100D80001C4A1432904217D01A4A2832904213D08B
:100D9000184A3C3290420FD0164A503290420BD043
:100DA000144A6432904207D0124A7832904203D0FB
:100DB000104A8C3290420BD1D4E919024260E06EA5
:100DC00030B1026822F480720260D4E91C024260F1
:100DD000002084F8351084F834006DE610000240DD
:100DE000580002407000024088000240A00002400B
:100DF00010040240085402582DE9F05F28B190F821
:100E00003510022904D0802141650120BDE8F09F02
:100E1000904C904B0168183C18338E4ADFF83C9296
:100E2000A1428D4CDFF838E28E4FDFF83CB2DFF89C
:100E30003CA28F4D8F4E31D091422FD099422DD070
:100E4000A1422BD0494529D0714527D0B94225D0A0
:100E5000DFF810C20CF1180C61451FD0DFF808C292
:100E6000ACF1600C614519D0DFF8FCC1ACF1480C65
:100E7000614513D0DFF8F0C1ACF1300C61450DD005
:100E8000DFF8E4C1ACF1180C614507D0594505D035
:100E9000514503D0A94201D0B1422CD1DFF8B4C1F1
:100EA0004FF0040880F83580ACF1180C61451DD076
:100EB00091421BD0994219D0A14217D0494515D073
:100EC000714513D0B94211D06648183081420DD017
:100ED00065486038814209D063484838814205D06E
:100EE00061483038814201D05F481838086820F0E6
:100EF00001000860ABE0D1F800C02CF00E08DFF86C
:100F000054C1C1F80080ACF1180C0168614527D0CC
:100F1000914225D0994223D0A14221D049451FD0EA
:100F200071451DD0B9421BD0DFF838C10CF1180C47
:100F3000614515D0DFF830C1ACF1600C61450FD0D0
:100F4000DFF824C1ACF1480C614509D0DFF818C1C5
:100F5000ACF1300C614503D0DFF80CC1ACF1180CDA
:100F6000D1F800C02CF0010CC1F800C0DFF8E4801B
:100F70004FF0010C0168A8F11808414546D0914294
:100F800044D0994242D0A14240D049453ED071451B
:100F90003CD0B9423AD0334A1832914236D0324A24
:100FA000603A914232D0304A483A91422ED02E4A8D
:100FB000303A91422AD02C4A183A914226D05945CB
:100FC00024D0514522D0A94220D0B1421ED02A4A75
:100FD00091421BD0284A1432914217D0264A283217
:100FE000914213D0244A3C3291420FD0224A5032CF
:100FF00091420BD0204A6432914207D01E4A783287
:10100000914203D01C4A8C32914218D1016E0A6879
:1010100022F480720A6090F85C20816D02F01F0259
:101020000CFA02F24A60D0E919124A60C16E31B17D
:101030000A6822F480720A60D0E91C124A60002219
:10104000016D80F835C080F8342001B18847002058
:10105000DCE6000028000240580002407000024018
:1010600088000240A0000240700402408804024050
:10107000A0040240B8040240085402582DE9FC5F65
:101080000446F74E0020DFF8D88300904FF4165244
:10109000F44808F11808A56DDFF8C493DFF8C0A381
:1010A000016809F1300920680AF1480AB1FBF2F140
:1010B000B04201912F68D5F800C0DFF8ACB335D04D
:1010C0004146884232D0484530D050452ED0584510
:1010D0002CD0E5491831884228D0E3493031884284
:1010E00024D0E1494831884220D0E04988421DD0CF
:1010F000DE491831884219D0DC493031884215D098
:10110000DA494831884211D0DFF860E30EF1600E11
:1011100070450BD0D54A7832904207D0D34B9033EC
:10112000984203D0D149A83188427DD194F85C20FF
:10113000082102F01F0201FA02F23A424AD0B042FC
:1011400032D0404530D048452ED050452CD058455F
:101150002AD0C54A1832904226D0C34A3032904233
:1011600022D0C14A483290421ED0C04A90421BD081
:10117000BE4A1832904217D0BC4A3032904213D047
:10118000BA4A483290420FD0B84A603290420BD0EF
:10119000B64A7832904207D0B44A9032904203D097
:1011A000B24AA832904203D1026802F0040202E07F
:1011B000026802F008026AB1026822F004020260CA
:1011C00094F85C0000F01F008140A960606D40F061
:1011D0000100606594F85C00012100F01F0081406F
:1011E000394240D02068B04234D0404532D04845E2
:1011F00030D050452ED058452CD09B4A18329042C2
:1012000028D0994A3032904224D0974A48329042AE
:1012100020D0964A90421DD0944A1832904219D05C
:10122000924A3032904200E0AFE113D08F4A483208
:1012300090420FD08D4A603290420BD08B4A783268
:10124000904207D0894A9032904203D0874AA83210
:1012500090427DD1406910F0800F04D0A960606D8C
:1012600040F00200606594F85C00042100F01F006B
:10127000814039423ED02068B04232D0404530D023
:1012800048452ED050452CD058452AD0764A1832A1
:10129000904226D0744A3032904222D0724A48326C
:1012A00090421ED0714A90421BD0704A1832904230
:1012B00017D06E4A3032904213D06C4A4832904276
:1012C0000FD06A4A603290420BD0684A783290421E
:1012D00007D0664A9032904203D0644AA8329042C6
:1012E0004ED1006810F0020F04D0A960606D40F08C
:1012F0000400606594F85C00102100F01F0081403C
:10130000394258D02068B04234D0404532D04845A8
:1013100030D050452ED058452CD0534A18329042E8
:1013200028D0514A3032904224D04F4A483290421D
:1013300020D04E4A90421DD04C4A1832904219D0CB
:101340004A4A3032904215D0484A4832904200E032
:1013500014E00FD0454A603290420BD0434A7832B5
:10136000904207D0414A9032904203D03F4AA8327F
:10137000904207D1006800F0080006E0006872E7BC
:101380000068B7E7006800F00400A0B1A960206819
:101390000168490304D50068000308D5A16C07E083
:1013A0000168C90503D4016821F008010160216CBE
:1013B00009B12046884794F85C00202100F01F0006
:1013C0008140394279D02068B04232D0404530D097
:1013D00048452ED050452CD058452AD0224A1832A4
:1013E000904226D0204A3032904222D01E4A4832C3
:1013F00090421ED01D4A90421BD01C4A1832904287
:1014000017D01A4A3032904213D0184A48329042CC
:101410000FD0164A603290420BD0144A7832904274
:1014200007D0124A9032904203D0104AA83290421C
:1014300003D1006800F0100002E0006800F0020034
:10144000B0B3A96094F835000428206801680FD073
:1014500049037ED5006800032BD4616C2AE00000AC
:10146000100002400C0000247000024010040240F2
:1014700021F0160101602068416921F0800141617D
:10148000206C08B9A06C20B12068016821F0080127
:10149000016094F85C303F21012003F01F0300221B
:1014A0009940A96084F8350084F83420216D65E006
:1014B00003E0E16B09B120468847606D00287DD0CC
:1014C000606DC00759D02068042184F83510B042FF
:1014D0002BD0404529D0484527D0504525D05845E8
:1014E00023D09D49884220D09B49183188421CD086
:1014F00099493031884218D09849884215D0974987
:101500001831884211D09549303188420DD0934925
:101510004831884209D091496031884205D08F49CD
:101520007831884201D08D499031016821F0010164
:10153000016020680099019A491C0091914202D8EB
:101540000168C907F6D10068C00710D003200FE07A
:10155000FFE70168C905ACD403680121002223F02C
:101560001003036084F8351084F83420A1E70120CB
:1015700084F83500002084F83400E16C00291DD087
:1015800002B02046BDE8F05F0847754988421DD08B
:1015900073491431884219D071492831884215D0D5
:1015A0006F493C31884211D06D49503188420DD08D
:1015B0006B496431884209D0694900E084E07831A0
:1015C000884203D066498C3188427DD194F85C8092
:1015D0000427016808F01F0807FA08F717EA0C0F3C
:1015E000009746D04F0744D500980F04686003D594
:1015F000C8033CD4A16CC1E7880638D42068B04247
:101600002DD055496039884229D0484527D05045CA
:1016100025D0584523D05049884220D04E49183112
:1016200088421CD04C493031884218D04B498842FE
:1016300015D04A491831884211D048493031884282
:101640000DD046494831884209D0704507D09042B4
:1016500005D0984203D04149A831884203D101689E
:1016600021F0080102E0016821F004010160216C11
:1016700084E7022707FA08F717EA0C0F00974ED005
:101680008F074CD500980F04686003D5C80344D475
:10169000616C73E7880640D42068B0422FD02E4991
:1016A000603988422BD0484529D0504527D058452D
:1016B00025D02949884222D02749183188421ED096
:1016C00025493031884200E044E018D0234988425F
:1016D00015D022491831884211D020493031884232
:1016E0000DD01E494831884209D0704507D090423C
:1016F00005D0984203D01949A831884203D1016826
:1017000021F0140102E0016821F00A0101600121C9
:1017100084F83510002084F83400E16B2EE70822AD
:1017200002FA08F212EA0C0F14D0090712D5016868
:1017300021F00E01016094F85C100120002201F0FC
:101740001F0100FA01F16960606584F8350084F8D2
:10175000342012E7BDE8FC9F8800024010040240DC
:10176000085402582DE9F05F044601F0B9F8002C46
:1017700007467DD0E24E022120684FF00308DFF8D3
:1017800084934FF00005DFF880A3B042DFF87CB30C
:1017900034D0DB4A1832904230D048452ED05045E4
:1017A0002CD058452AD0D94A1832904226D0D74A50
:1017B0003032904222D0D54A483290421ED0D44A8C
:1017C00090421BD0D24A1832904217D0D04A3032C1
:1017D000904213D0CE4A483290420FD0CC4A603269
:1017E00090420BD0CA4A7832904207D0C84A903211
:1017F000904203D0C64AA83290427DD184F8351079
:10180000B04284F834502ED0BD49183188422AD0D5
:10181000484528D0504526D0584524D0BB491831DA
:10182000884220D0B949303188421CD0B74948316C
:10183000884218D0B649884215D0B5491831884237
:1018400011D0B349303188420DD0B1494831884276
:1018500009D0AF496031884205D0AD49783188421E
:1018600001D0AB499031016821F00101016008E02D
:1018700025E100BF01F034F8C01B052801D9202163
:101880001AE120680068C007F4D1D4E90203216896
:10189000103418438E4694E88410D4E9033809685C
:1018A0003A4310439B4A40EA0C00676918431140D1
:1018B000103C40EA0800042F40EA010003D1D4E9BB
:1018C0000B12114308436168A1F12902052A0BD9C3
:1018D000163A032A08D9083A012A05D9083A032AF0
:1018E00002D97439032901D840F48010CEF80000E1
:1018F0002068676A406900E020E0042F20F00700BC
:1019000047EA00070DD1D4E90A01074349B120464F
:10191000FEF74EFF28B140206065012184F83510A4
:10192000CDE0206847612046FEF760FE94F85C2019
:101930003F2102F01F029140816055E0764A9042BB
:101940001BD0754B1433984217D0734B28339842F1
:1019500013D0714B3C3398420FD06F4B50339842A9
:101960000BD06D4B6433984207D06B4B7833984261
:1019700003D0694B8C3398427ED184F8351084F8BB
:101980003450664B0168A26801EA030E402A74D005
:10199000802A73D05FF00002D4E90378D4E90531DE
:1019A00042EAD70242EAD8085B4AD4E9077C48EA0F
:1019B000D30848EAD10141EAD701524241EA1C1159
:1019C000142341EA0E01016020681044B0FBF3F0DB
:1019D0008000E0652046FEF709FE94F85C200121B6
:1019E00002F01F02914041602068B04257D0444944
:1019F0001831884253D0484551D050454FD05845B2
:101A00004DD042491831884249D04049303188424E
:101A100045D03E494831884241D03D4988423ED078
:101A20003B49183188423AD039493031884236D062
:101A300037494831884232D03549603188422ED00A
:101A40003349783188422AD031499031884226D0B2
:101A50002F49A831884222D02F4988421FD02E49D1
:101A6000143188421BD02C492831884217D02A498A
:101A70003C31884213D002E01DE017E018E026490F
:101A8000503188420BD024496431884207D0224922
:101A90007831884203D020498C31884229D12046B0
:101AA000FEF7FEFDA06880280CD00CE0102273E742
:101AB0004FF4804270E74021616584F83580012051
:101AC000BDE8F09F6560216E20790860D4E91901B6
:101AD00041606068401E072808D82046FEF72EFEA9
:101AE000E06E0560D4E91C01416002E0E56625670F
:101AF00065670120656584F835000020E0E7000097
:101B000010000240400002405800024070000240B5
:101B1000100402403F8010FE085402580F00FEFFE0
:101B200070B5044600F0DCFE0546601C02D0044897
:101B30000078044400F0D4FE401BA042FAD370BDEC
:101B40000000002410B590F89830012B09D0022B2A
:101B500007D0D0F89C1041F00201C0F89C10012081
:101B600010BD03689C6D0C4203D1DC6D44F0010490
:101B700004E09C6D31EA04041FD00324DC658B056E
:101B800005D50368D3F8E0401443C3F8E0404B05A3
:101B900005D50368D3F8E4401443C3F8E440006873
:101BA000084A01EA0203446D074A1C434465106871
:101BB00040EA91701060002010BDDC6D44F002041A
:101BC000DCE70000FFFFCF3F14A8004070B50446DB
:101BD00090F89800022804D0D4F89C0040F0080047
:101BE0000DE02068D0F8C03013F07C5F0BD0D0F847
:101BF000C4309B020CD5D4F89C0040F40070C4F8AB
:101C00009C00012070BDD4F89C0040F02000F6E755
:101C1000D0F8C400C0F3044520462B46FEF7FEFE74
:101C200021680120A840C1F8D000C4F89400002029
:101C300070BD704770B590F89820012A09D0022A2B
:101C400007D0D0F89C1041F00201C0F89C10012090
:101C500070BD0B68CA6883B10B69072A43EA4273F7
:101C600025D00C7A4A6942EA84724968006F00EB19
:101C7000C100C0E90032002070BD072A0DD00C7AE7
:101C8000D6060D8A4B6943EA847246EA0543C06E64
:101C900049681A4340F82120EDE70B8A4FF0605560
:101CA000D1E9062442EA034245EA0423EFE78A69C0
:101CB000DBE730B590F89850039C012D07D0D0F8A1
:101CC0009C1041F00401C0F89C10012030BD0D01B2
:101CD000016845EA820040EA43002043C1F88000E1
:101CE000002030BD70477047F0B590F89850002440
:101CF000022D04D0D0F89C1041F0080129E04029C1
:101D000005D0412929D0056D8D4219D942E00568D9
:101D1000D5F8A06016F4FE0F12D0D5F8A4607606B0
:101D200013D0D5F8A460F60105D5D5F8A06016F05B
:101D3000004F00D50124D5F8A470466F456C24E00F
:101D4000D0F89C1041F0200103E0D0F89C1041F441
:101D50008071C0F89C100120F0BD0568D5F8B06016
:101D600016F4FE0FECD0D5F8B4607606EDD0D5F8B9
:101D7000B460F60105D5D5F8B06016F0004F00D577
:101D80000124D5F8B470866FC56CC7F305273C44B1
:101D9000654302E0456DC66F4D4306EB85052E6831
:101DA00016F0804656602E6836D026F060461660E3
:101DB000D5F800C000262E4F0CF0005CC2F808C019
:101DC000D5F800C00CF0004CC2F810C0B5F804C043
:101DD0001FFA8CFCC2F81CC0D5F804C0CCF3034C2D
:101DE000C2F80CC0D5F804C00CF4801CC2F814C0B2
:101DF000D5F804C00CF4001CC2F818C0D5F804C013
:101E0000CCF3066CC2F820C0D5F804C008354FEA00
:101E1000DC7CC2F824C008E0C6F38A46C7E700BFEE
:101E200015F806C003F806C0761CD2F80CC017F8E7
:101E30000CC0B445F4D840290AD041290CD020293F
:101E40004FF001020CD200688A40C0F898200DE0E3
:101E50000068C0F8A84009E00068C0F8B84005E094
:101E6000006801F01F018A40C0F89C200020F0BDEE
:101E70006C6E0008704700002DE9FF5FDFF80CB3BF
:101E800004460BF10401DBF8000025680F68AA4640
:101E90008007D5F85090696DD5F850806E6D2A6D29
:101EA000D5F854C02B6D00EA8770009009F4704992
:101EB0006F6D286D01EA09010191DAF85410DAF822
:101EC0005490DAF8505008F00F0806EA0806029617
:101ED00002F0F00203F071536FEA09061F4000F0B0
:101EE00060700CEA020CCDF80CC0F20501EA0009A2
:101EF0000CD4E843C00509D400214FF48073CAF81C
:101F00005030CBF800102046FFF7B4FF700512D414
:101F1000E84340050FD4206800234FF48068D0F8D0
:101F2000DC20D0F8E410C0F85080CBF8003011402D
:101F3000204600F0BDFBDFF858A2009850B122689F
:101F4000830F00EA0A001065CBF8003020460099A4
:101F5000FFF76FFE019850B12268830F00EA0A0074
:101F60001065CBF800302046019900F0A3FB0298E1
:101F700050B12268830F00EA0A001065CBF80030E8
:101F80002046029900F012FB039850B12268830F9B
:101F900000EA0A001065CBF800302046039900F0F3
:101FA00067FB30050CD4E843000509D42368002002
:101FB0004FF400621A65CBF80000204600F07BFB6E
:101FC000B00512D4E84380050FD4206800234FF4F5
:101FD0000078D0F8D820D0F8E010C0F85080CBF8C6
:101FE00000301140204600F064FB30030CD4E8437D
:101FF000000309D4236800204FF400221A65CBF8AF
:102000000000204600F0D0FAF0030CD4E843C003EF
:1020100009D4236800204FF480321A65CBF8000001
:10202000204600F044FB70030CD4E843400309D47D
:10203000226800204FF480231365CBF8000020466F
:1020400000F034FBB0030FD4E84380030CD42368C2
:1020500000204FF400321A65CBF80000D4F89C0041
:1020600040F08000C4F89C00B9F1000F0BD022684A
:102070004FEA997309EA0A001065CBF80030494627
:102080002046FFF730FE5FB12268BB0F07EA0A0067
:102090001065CBF80030D4F89C003843C4F89C009D
:1020A0003C492068884268D1606881468068800722
:1020B00063D0D9F82060D9F82410D9F82080D9F855
:1020C0002400D9F820C0D9F82470D9F82030D9F8E4
:1020D0002450D9F8202003F4FC4306F00F0AD9F865
:1020E00024601D40D9F824B008F030080CF4C07CFE
:1020F00002F4F02211EA0A0100EA080807EA0C07D4
:1021000006EA0206D9F820A004D0C9F8201020461B
:1021100000F0C9FAB8F1000005D0616808624146D4
:10212000204600F0C2FA6FEA0B0040060ED46FEAB8
:102130000A0040060AD460684021C36BC26B01628A
:102140002046190C02F03F0200F0AEFA2FB1606891
:1021500007623946204600F0A5FA35B1606805628D
:10216000D4F89C002843C4F89C0036B1606806622D
:10217000D4F89C003043C4F89C00D4F89C0000289C
:1021800002D02046FFF7AEFDBDE8FF9F10A800403B
:10219000FFFFCF3F00A000402DE9F04194B08D49F2
:1021A0004C2204466846FEF7E0F864B18A4D206888
:1021B000A84202D100F58070606094F898004FF05A
:1021C000000820B108E0012014B0BDE8F0812046ED
:1021D00084F8998000F002F92068816921F01001EB
:1021E000816100F07DFB0327064604E000F078FBE8
:1021F000801B0A2811D8206880690007F6D420685F
:10220000816941F00101816100F06AFB06460DE041
:1022100000F066FB801B0A2808D9D4F89C0040F027
:102220000100C4F89C0084F89870CCE720688069AD
:10223000C007EDD02068816941F002018161207CF6
:1022400001282068816937D041F040018161607CBC
:1022500001282068816932D021F480418161A07C0D
:102260000128206881692DD041F480518161206866
:10227000A268816921F440711143816120688169FC
:1022800021F0A40181612068016921F01001016140
:10229000E068012819D010B302281BD0206881699A
:1022A00041F0800181612068016941F01001016104
:1022B000E06803280ED012E021F04001C6E741F4A7
:1022C0008041CBE721F48051D0E72068816941F05B
:1022D000040103E02068816941F020018161207ED2
:1022E0006FF0FF02D4E90773A68A1102400602EBE1
:1022F0000727A0F10070384327685B1E184301EBE5
:1023000006463043F861A068B0F5407F11D104F172
:102310002800A68C6FF00F0C89C801EB0641401E07
:1023200002EB0322104322680CEB07131843084307
:10233000D060206E30B12068626ED0F8C0101143BA
:10234000C0F8C010D4E917126846D14209D02168FC
:10235000A36E51F8C82F50F8233022F007021A4319
:102360000A60216C49B12168626C51F8BC3F50F899
:10237000226023F0070232430A60A16C51B1216848
:10238000E36C51F8BC2F50F8233022F0700242EA7F
:1023900003120A60216D51B12168626D51F8BC3F92
:1023A00050F8220023F4E06242EA0020086020682E
:1023B000A84204D16068816821F003018160C4F8FB
:1023C00094800121C4F89C8084F898102046FEF780
:1023D00041FAF9E67C6E000800A000402DE9F04FBC
:1023E000B5B0824614212EA8FDF7D8FFB821684663
:1023F000FDF7D4FF664C0327DAF800004FF0805158
:10240000644A0C3C614E4FF00008614D9042DFF889
:1024100088B14FF002094FF0090A37D100201B9113
:102420004A13CDE90020684600F0DEFC08B1FEF753
:10243000EAF93068401C3060012807D1286840F470
:1024400080702860286800F480703390206840F025
:102450000800206020682EA9CDE92E7900F0080040
:10246000CDE93087CDE932A0584600F025F90022A9
:102470000521132000F006FB132000F0F5FA0022DE
:102480000521152000F0FEFA15203BE0434A90425A
:102490003DD100201B914FF40042CDE90020684659
:1024A00000F0A2FC08B1FEF7AEF93068401C3060C5
:1024B000012807D1286840F480702860286800F45B
:1024C00080703390206840F0020020602068602314
:1024D000CDE9308700F002002EA9CDE932A03048C6
:1024E000CDE92E3900F0E8F800220521142000F093
:1024F000C9FA142000F0B8FA00220521162000F0D5
:10250000C1FA162000F0B0FA35B0BDE8F08F254AC8
:102510009042F9D100201B914FF40042CDE90020F8
:10252000684600F061FC08B1FEF76DF93068401CA8
:102530003060012807D1286840F48070286028683E
:1025400000F480703390206840F00800206020681C
:1025500005234FF4405200F00800CDE930872EA942
:10256000CDE93230CDE92E29584600F0A5F80022F9
:1025700005219F2000F086FA9F2000F075FA0022C6
:102580000521A02000F07EFAA020BBE72C0000244B
:10259000EC44025800A00040000C025800A4004087
:1025A0000004025800D400407047000010B5C9076D
:1025B0008CB037D02A492B4C884217D10AAA6946D9
:1025C00004F0ACFB00980AA9C0EBC00004EBC0000B
:1025D000A0F5E040383804F0AFFB0098C0EBC00035
:1025E00004EBC000A0F5E040383819E01E498842ED
:1025F0001AD10AAA694604F091FB00980AA9C0EB17
:10260000C00004EBC000A0F5DA40D03804F094FB21
:102610000098C0EBC00004EBC000A0F55D601CE0BA
:1026200004F0D2FB0CB010BD10498842FAD10AAABE
:10263000694604F073FB00980AA9C0EBC00004EBE4
:10264000C000A0F5D640683804F076FB0098C0EBD7
:10265000C00004EBC000A0F66830A0F5C040DFE782
:1026600030000024F00E0024D0000024700100246B
:10267000704790F89810012907D0D0F89C1041F0CD
:102680000401C0F89C1001207047022180F89810C6
:10269000002201688B6923F001038B61C0F89C2044
:1026A00010467047704770477047704770477047D3
:1026B00070477047704770472DE9F84F03247A4DF3
:1026C00000234FF001094FF0B04B4FF00F0AE4E048
:1026D00009FA03F6324078D00F7907F00307012F8B
:1026E00001D0022F1AD187684FEA430ED1F80CC0EF
:1026F00004FA0EF827EA08070CFA0EFC4CEA070C5D
:10270000C0F808C0476891F804C0B743CCF3001C78
:102710000CFA03FC4CEA070CC0F804C00E79F6432F
:10272000B6070BD0C6684FEA43088F6804FA08FC66
:1027300026EA0C0607FA08F73743C7600E7906F059
:102740000306022E12D1DE080F694FEA437C00EB2C
:102750008606B646366A4FEADC6C0AFA0CF807FAC7
:102760000CF726EA08063743CEF820700F79066882
:102770004FEA430807F0030704FA08FC07FA08F7D2
:1027800026EA0C06374307604E6816F4403F1CD01B
:10279000464E376847F00207376036689F0706F0F5
:1027A0000206009623F0030606F1B046B6463F0F38
:1027B000D6F80864DFF8F8800AFA07FC404526EAF4
:1027C0000C0603D14FF0000C3AE065E0DFF8E4C0FE
:1027D000604502D14FF0010C32E0DFF8DCC060450B
:1027E00002D14FF0020C2BE0DFF8D0C0604502D1DF
:1027F0004FF0030C24E0DFF8C8C0604502D14FF071
:10280000040C1DE0DFF8BCC0604502D14FF0050CA0
:1028100016E0DFF8B4C0604502D14FF0060C0FE0BF
:10282000DFF8A8C0604502D14FF0070C08E0DFF8E0
:10283000A0C0604502D14FF0090C01E04FF00A0C36
:102840000CFA07FC4CEA060CCEF808C44F68DBF81B
:102850000060FF0226EA020600D516435F46CBF869
:102860000060D1F804C0DBF804605FEA8C2C26EA33
:10287000020600D516437E606E684F6826EA02069F
:10288000BF0300D516436E602E684F6826EA020625
:10289000FF0300D516432E605B1C0A6832FA03F66C
:1028A0007FF416AFBDE8F88F80000058F44402585A
:1028B000000002580004025800080258000C025898
:1028C000001002580014025800180258001C025848
:1028D000002402580AB1816170470904FBE7000037
:1028E00001488068704700000000002470B50400B3
:1028F00011D022684CF6CC4145F255501160216848
:102900000860D4E9000141602168A0688860FFF791
:10291000E7FF05460DE0012070BD00BFFFF7E0FFB7
:10292000401B312805D92068C068400701D003202A
:1029300070BD2068C0684007F0D12068E168026976
:102940008A4201D0016102E04AF6AA21016000201A
:1029500070BD0000024881680278114481607047B0
:1029600000000024032010B500F0ACF801F07CF862
:102970000F4A104914681368C4F3032203F00F03CD
:102980008A5CC95C02F01F0201F01F01D0400A4AB4
:1029900020FA01F1116009490860002000F010F8E8
:1029A00008B1012010BD00F04DF8002010BD00005E
:1029B00018440258F06E0008100000240C00002497
:1029C00010B5102804468AB02AD200220146A12060
:1029D00000F058F8A12000F047F8154804601548A9
:1029E000016841F080710160006808A900F0807002
:1029F0000990684600F0C4FF01F024F80E49400039
:102A000000220E4CB0FBF1F10D4840F2E7330460B8
:102A1000C0E90332491EC0E9011201F095FC10B172
:102A200001200AB010BD064801F044FDF9E700009E
:102A300004000024EC44025840420F0000E0004033
:102A4000280B0024074882B0016841F002010160B0
:102A5000006800220F2100F002000090901E02B0DA
:102A600000F010B8F4440258002809DB410900F0D6
:102A70001F028900012001F1E0219040C1F800010E
:102A8000704700000E4BF0B41B680D46C3F30223E1
:102A9000C3F10706042E00D90426191D072901D207
:102AA000002300E0DB1E012404FA06F19C40491ECD
:102AB0002940641E994014402143F0BC04F085B8BD
:102AC0000CED00E0064900F0070210B54FF6FF04D8
:102AD0000868044B204040EA02201843086010BDFB
:102AE0000CED00E00000FA05134970B50A68D24306
:102AF000520705D5096801F00701814213D118E09A
:102B00000A6822F0070202430A60FFF7E9FE0A4D55
:102B10004FF47A760446083D07E000BFFFF7E0FE79
:102B2000001BB04201D9012070BD2868C043800459
:102B3000F4D4002070BD00000C48025810B500F01D
:102B40004DFF05490968054AC1F30211515C01F0C6
:102B50001F01C84010BD000020440258F06E00085C
:102B6000494930B5484C0B1D0A68143409681D6882
:102B7000246802F00303C5F30012C1F30531C4F366
:102B8000CC04002914FB02F200EE102AF8EE400AF1
:102B900075D03F4A9FED3D1AB7EE000A6BB1DFEDED
:102BA0003D1A012B01D0022B64D002EE101A1168DD
:102BB000F8EE422A81EEA22A21E0334C283C236819
:102BC0009B0612D5344B246801EE901A1168C4F3A9
:102BD000C104F8EE612AE34001EE903AC1F3080126
:102BE000F8EE611A81EEA22A0BE001EE901ADFEDF9
:102BF0002B2A00BFF8EE611A116882EEA12AC1F3F8
:102C0000080101EE901A1168F8EE611A40EE811A7F
:102C100071EE800A62EE200AC1F3462101EE101A1D
:102C2000B8EE411A31EE001AC0EE811ABCEEE11A7C
:102C300080ED001A1168C1F3064101EE101AB8EEDA
:102C4000411A31EE001AC0EE811ABCEEE11A80ED95
:102C5000011A1168C1F3066101EE101AB8EE411AAB
:102C600031EE000A80EE801ABCEEC10A80ED020A45
:102C700030BD04E001EE901ADFED092ABAE7002129
:102C8000016041608160F3E7284402580000003988
:102C9000384402580024744A0090D0030024744C35
:102CA000001BB74B494930B5484C0B1D0A681C3412
:102CB00009681D68246802F00303C5F30022C1F30C
:102CC0000551C4F3CC04002914FB02F200EE102AD3
:102CD000F8EE400A75D03F4A9FED3D1AB7EE000A64
:102CE0006BB1DFED3D1A012B01D0022B64D002EE57
:102CF000101A1168F8EE422A81EEA22A21E0334C24
:102D0000283C23689B0612D5344B246801EE901AA8
:102D10001168C4F3C104F8EE612AE34001EE903A71
:102D2000C1F30801F8EE611A81EEA22A0BE001EE70
:102D3000901ADFED2B2A00BFF8EE611A116882EEBF
:102D4000A12AC1F3080101EE901A1168F8EE611A88
:102D500040EE811A71EE800A62EE200AC1F346212C
:102D600001EE101AB8EE411A31EE001AC0EE811AC7
:102D7000BCEEE11A80ED001A1168C1F3064101EEC4
:102D8000101AB8EE411A31EE001AC0EE811ABCEEEC
:102D9000E11A80ED011A1168C1F3066101EE101A03
:102DA000B8EE411A31EE000A80EE801ABCEEC10A7C
:102DB00080ED020A30BD04E001EE901ADFED092A31
:102DC000BAE70021016041608160F3E728440258BE
:102DD00000000039404402580024744A0090D00397
:102DE0000024744C001BB74B2DE9FE4F0546DFF85D
:102DF00000A450F8081B0024FD4FC943019005F1C1
:102E0000280026460AF1240A009008011DD4686EA5
:102E100050B1B0F5801F0CD0B0F5001F0ED0B0F54A
:102E2000401F1ED001240FE0386840F400303860A5
:102E300017E00198022102F063FF03E000980221ED
:102E400002F0EEFF04000CD026462888C043C005DF
:102E500023D4A86D05281ED2DFE800F00C11161B44
:102E60001B006A6EDAF8001021F440111143CAF811
:102E70000010EAE7386840F40030386009E0019853
:102E8000002102F03DFF03E00098002102F0C8FF9E
:102E90000446C4B100E0012426462888DFF85083A8
:102EA000C04308F12C0840052FD4D5F8A400B0F594
:102EB000C00F28D010DCB8B1B0F5001F19D0B0F5A4
:102EC000800F0FD11AE0AA6DDAF8001021F0070187
:102ED0001143CAF80010E0E7B0F5000F13D0B0F5C9
:102EE000200F10D001240FE0386840F40030386023
:102EF00009E00198002102F003FF03E0009800219F
:102F000002F08EFF044694B126462888C04300058F
:102F100030D4D5F8A800B0F1407F29D011DCC0B181
:102F2000B0F1807F1AD0B0F1007F10D11BE0D5F84E
:102F3000A420D8F8001021F460011143C8F8001053
:102F4000E3E7B0F1806F13D0B0F1A06F10D001248F
:102F50000FE0386840F40030386009E00198002143
:102F600002F0CEFE03E00098002102F059FF044673
:102F700094B126462868DFF878B2C0430BF1200BE5
:102F800080011FD4E86CD8B110280FD0202812D0AF
:102F9000302815D0012414E0D5F8A820D8F8001066
:102FA00021F0E0611143C8F80010E3E7386840F40D
:102FB0000030386004E00198022102F0A1FE0446CE
:102FC00074B126462888C043C0042BD4E86DB0F500
:102FD000005F20D00DDCA0B1B0F5805F0FD115E00F
:102FE000EA6CDBF8001021F030011143CBF800103F
:102FF000E8E7B0F5405F13D0B0F5804F10D0012462
:103000000FE0386840F40030386009E00198002192
:1030100002F076FE03E00098002102F001FF044672
:103020008CB126462888C043800429D4286EB0F588
:10303000403F23D010DC08B3B0F5803F14D0B0F58A
:10304000003F0FD115E0EA6DDAF8001021F4E041FD
:103050001143CAF80010E5E7B0F5802F0ED0B0F5A7
:10306000A02F0BD001240AE00198012102F048FEB4
:1030700003E00098012102F0D3FE044694B12646F5
:103080002888C04340042AD4D5F8AC00B0F1405F92
:1030900023D010DC08B3B0F1805F14D0B0F1005F32
:1030A0000FD115E02A6EDAF8001021F4E021114367
:1030B000CAF80010E4E7B0F1804F0ED0B0F1A04F95
:1030C0000BD001240AE00198012102F019FE03E06F
:1030D0000098012102F0A4FE044674B12646288817
:1030E000C04300041FD4E86ED8B1B0F1805F0ED0A9
:1030F000B0F1005F10D0012414E0D5F8AC20D8F86E
:10310000001021F0E0411143C8F80010E7E73868EB
:1031100040F40030386004E00198012102F0F0FD35
:10312000044674B126462868C043C0011ED4A86C6A
:10313000D0B101280ED0022811D0032814D00124C8
:1031400013E0EA6EDAF8001021F040511143CAF89A
:103150000010E8E7386840F40030386004E0019877
:10316000022102F0CDFD04466CB126462868C0431A
:10317000400255D41F48016841F480710160FFF797
:10318000AFFB81460EE0AA6CDBF8001021F00301D2
:103190001143CBF80010E9E7FFF7A2FBA0EB090011
:1031A00064283BD813480068C005F5D5BCBBDFF8E0
:1031B0004090B5F8B01009F14409D9F8000001F4C5
:1031C000407100F44070884211D0D9F80010D9F84D
:1031D000002021F4407142F48032C9F80020D9F86F
:1031E000002022F48032C9F80020C9F8001003E062
:1031F0002C44025800480258D5F8B000B0F5807F42
:1032000019D1FFF76DFB029011E000BFFFF768FBDB
:103210000299411A41F28830814208D90324264696
:103220002878DFF81494C043C00721D03CE0D9F8D7
:1032300000008007EAD5D5F8B010C1F301200328BB
:10324000FE480DD0016821F47C510160B5F8B02032
:10325000D9F80010C2F30B021143C9F80010DFE7E0
:10326000F74A036802EA111223F47C511143ECE798
:10327000A86F182816D005DCA0B1082808D010289F
:1032800004D10AE020280DD028280BD001240AE020
:103290000198012102F034FD03E00098012102F0C1
:1032A000BFFD044664B126462878C04380071ED47B
:1032B000686F062819D2DFE800F0160C11161616F2
:1032C000AA6FD9F8001021F038011143C9F8001095
:1032D000EAE70198012102F013FD03E000980121C3
:1032E00002F09EFD04467CB100E0012426462878C9
:1032F000C04340071FD4D5F89000062819D2DFE854
:1033000000F0160C111616166A6FD9F8001021F08D
:1033100007011143C9F80010E9E70198012102F003
:10332000EFFC03E00098012102F07AFD0446A4B10D
:1033300000E0012426462878C04380062BD4D5F827
:103340008C00B0F1405F24D011DC10B3B0F1805F8D
:1033500015D0B0F1005F10D116E0D5F89020D8F864
:10336000001021F007011143C8F80010E3E7B0F1A5
:10337000804F0ED0B0F1A04F0BD001240AE001988D
:10338000002102F0BDFC03E00098022102F048FD9C
:10339000044694B126462878C04340062BD4D5F87D
:1033A0009800B0F5406F24D011DC10B3B0F5806FF9
:1033B00015D0B0F5006F10D116E0D5F88C20D9F8F3
:1033C000001021F0E0411143C9F80010E3E7B0F527
:1033D000805F0ED0B0F5A05F0BD001240AE0019809
:1033E000002102F08DFC03E00098022102F018FD9C
:1033F000044694B126462878C04300062BD4D5F85D
:103400009C00B0F5C04F24D011DC10B3B0F5005FC4
:1034100015D0B0F5804F10D116E0D5F89820D8F827
:10342000001021F4E0511143C8F80010E3E7B0F5B3
:10343000004F0ED0B0F5204F0BD001240AE00198C8
:10344000002102F05DFC03E00098022102F0E8FC9C
:10345000044654B126462878C04300071ED4D5F848
:103460008000B0F5805F0AD00FE0D5F89C20D8F836
:10347000001021F460411143C8F80010EBE70098F8
:10348000022102F0CDFC00B10126D5F88020D9F848
:10349000001021F440511143C9F800102878C043AE
:1034A000C00613D4D5F89400B0F5807F05D10098FC
:1034B000022102F0B5FC00B10126D5F89420D8F81D
:1034C000001021F440711143C8F800102868C0436F
:1034D000000316D4D5F8A00038B1B0F5803F09D06C
:1034E000B0F5003F0BD001240AE00198002102F062
:1034F00007FC03E00098022102F092FC04468CB124
:1035000026462868C043400322D4D5F88400B0F58D
:10351000801F11D0B0F5001F13D0B0F5401F15D09B
:10352000012414E0D5F8A020D8F8001021F440318F
:103530001143C8F80010E4E7386840F40030386000
:1035400004E00098012102F06BFC04465CB12646C1
:103550002868C043C0031CD4286D70B1B0F5803F0B
:1035600010D0012414E0D5F88420D9F8001021F4FB
:1035700040111143C9F80010EAE7386840F4003000
:10358000386004E00198022102F0BAFB0446DCB185
:1035900026462868C043800005D40098022102F026
:1035A0003FFC00B101262868C04380031BD4E86FAC
:1035B000B8B1B0F5807F10D0B0F5007F11D0B0F574
:1035C000407F0ED001240DE02A6DDBF8001021F4BD
:1035D00080311143CBF80010DBE7386840F400304D
:1035E00038607CB326462868C043C00207D42A6FDF
:1035F000DAF8001021F000411143CAF800102868E1
:10360000C043800207D4AA6EDAF8001021F080715E
:103610001143CAF800102868C043400009D4074885
:10362000016821F4004101600168D5F8B42011431C
:1036300001602868C04306E0544402581044025810
:10364000CFFFFF001DE007D46A6DDBF8001021F00A
:1036500040511143CBF800102868C043000208D441
:10366000D5F88820D9F8001021F440011143C9F899
:10367000001028790024C04300F00100204309D045
:103680000EE0EA6FD9F8001021F440711143C9F837
:103690000010A8E70198002102F032FB00B10646B5
:1036A0002879C04300F00200204305D10198012190
:1036B00002F026FB00B106462879C04300F0040062
:1036C000204305D10198022102F01AFB00B1064601
:1036D0002879C04300F00800204305D1009800215C
:1036E00002F09EFB00B106462879C04300F01000AE
:1036F000204305D10098012102F092FB00B106465B
:103700002879C04300F02000044304D1009802212E
:1037100002F086FB00B916B10120BDE8FE8F002043
:10372000FBE700002DE9F05F04000F467ED0DFF8D4
:103730003882D8F8000000F00F00B8420CD2D8F858
:10374000001021F00F013943C8F80010D8F800002C
:1037500000F00F00B84269D12078844D40070AD5A7
:103760002069296801F07001884204D9296821F094
:1037700070010143296020787C4E361D00070AD570
:103780006069316801F07001884204D9316821F024
:103790007001014331602078C0060AD5A069316804
:1037A00001F4E061884204D9316821F4E061014309
:1037B00031602078DFF8B4B180060BF1080B0CD52E
:1037C000E1695846DBF8002002F07002914204D90A
:1037D000026822F070020A430260207880070AD54E
:1037E000E068296801F00F01884204D9296821F0B6
:1037F0000F01014329602078C0073ED05B49A268D1
:103800002868183920F47060104328606068022826
:1038100018D0032819D00968012819D049070029B0
:103820004ADADFF848A1AAF1080A00E044E0DAF831
:10383000002022F007020243CAF80020FFF750F8E8
:10384000814612E009688903E9E709688901E6E72A
:10385000C905E4E7FFF744F8A0EB090141F288301D
:10386000814202D90320BDE8F09F6168DAF80000C8
:1038700000F03800B0EBC10FECD1207880070AD5FA
:10388000E068296801F00F01884204D2296821F01C
:103890000F0101432960D8F80010404601F00F01E4
:1038A000B9420BD9016821F00F013943016000686A
:1038B00000F00F00B84201D00120D4E72078400783
:1038C0000AD52069296801F07001884204D229686C
:1038D00021F0700101432960207800070AD5606952
:1038E000316801F07001884204D2316821F0700122
:1038F000014331602078C0060AD5A069316801F41F
:10390000E061884204D2316821F4E0610143316012
:10391000207880060CD5E1695846DBF8002002F0DB
:103920007002914204D2026822F070020A430260DF
:1039300000F09AF80E492A682B68C2F3032203F0BC
:103940000F038A5CC95C02F01F0201F01F01D04026
:10395000084A20FA01F11160074908600748006829
:10396000BDE8F05FFFF72CB8002000521844025861
:10397000F06E0008100000240C0000240400002455
:1039800070B5144C3F220260124A24680832131D9D
:10399000114D04F00704446016681C1D06F470669F
:1039A0008660166806F00F06C660126802F07002A4
:1039B00002611A6802F0700242611A6802F4E06261
:1039C0008261226802F07002C261286800F00F0074
:1039D000086070BD104402580020005230B500F05D
:1039E00043F80B4A0B490C4B15681468C5F30322C6
:1039F00004F00F048A5C095D02F01F0201F01F0150
:103A0000D040064A20FA01F119601060084630BD26
:103A100018440258F06E0008100000240C00002426
:103A200000B5FFF7DBFF05490968054AC1F302113C
:103A3000515C01F01F01C84000BD00001C44025849
:103A4000F06E000800B5FFF7C9FF05490968054A8F
:103A5000C1F30221515C01F01F01C84000BD00000C
:103A60001C440258F06E0008454970B54548096885
:103A7000434B103B11F0380208D00111082A03D043
:103A8000102A0BD0182A0BD0084670BD1968890679
:103A9000FBD51968C1F3C101C84070BD3A4870BD7B
:103AA0003749374D18310C1D24350A6809682668D6
:103AB0002D6802F0030406F00102C1F30511C5F3FD
:103AC000CC0515FB02F200EE102AB8EE400AE9B36D
:103AD0002F4ADFED2E0AB7EE001A6CB1DFED2D1A7A
:103AE000012C01D0022C43D002EE101A1068F8EE1F
:103AF000422A81EEA22A1EE01C68A40611D51B688A
:103B000001EE901A1168C3F3C103F8EE612AD840A0
:103B100001EE900AC1F30800F8EE611A81EEA22AC4
:103B20000BE001EE901ADFED1C2A00BFF8EE611ADF
:103B3000106882EEA12AC0F3080001EE900AF8EEA8
:103B4000611A40EE201A31EE810A00E015E022EE03
:103B5000000A1068C0F34620401C00EE900AF8EE00
:103B6000600A80EE201ABCEEC10A10EE100A70BD89
:103B700001EE901ADFED092AD8E7002070BD0000A1
:103B8000104402580090D00300366E010000003946
:103B9000304402580024744A0024744C001BB74B74
:103BA000F0B50D461F49204C002887B016464FF04F
:103BB00000004FF002020F684FF0030319D047F0E6
:103BC00004070F60096801F00401059111020091DA
:103BD000CDE90120CDE9033014486946FEF76CFDBC
:103BE000206845EAC61120F07E400843206007B0F7
:103BF000F0BD47F001070F60096801F00101059170
:103C00004FF480710091CDE90120CDE903300848DF
:103C10006946FEF751FD2068354320F0FE702843C9
:103C2000E4E70000E044025810440258000802583B
:103C3000000002582DE9F05F04007DD0FF4F20788E
:103C4000FE4D1837DFF8F483103DC00748D0D8F890
:103C50000000396800F03800102815D0182803D16A
:103C600001F0030002280FD06068B0F5803F12D049
:103C700010B1B0F5A02F18D0286820F4803028604B
:103C8000286820F4802009E02868800328D560682F
:103C90000028D2D024E0286840F480302860606892
:103CA00088B1FEF71DFE064609E0286840F4802032
:103CB0002860F0E7FEF714FE801B64287ED8286891
:103CC0008003F7D50CE0FEF70BFE064605E000BFCB
:103CD000FEF706FE801B6428F0D828688003F7D41E
:103CE0002078800756D5D8F80000DFF8509339685F
:103CF00010F03800A9F10C090ED0182801D188075E
:103D00000AD0E068A8B3296821F0190101432960AD
:103D1000FEF7E6FD064628E02868400702D5E06881
:103D200000288AD0E168286820F01900084328603C
:103D3000FEF7D6FD064606E0D2E000BFFEF7D0FD56
:103D4000801B0228BAD828684007F7D5217CD9F80B
:103D5000002022F0FE4242EA0161C9F8001019E099
:103D6000FEF7BEFD801B0228A8D828684007F7D5BB
:103D7000ECE7FFE7286820F001002860FEF7B0FDBF
:103D8000064604E0FEF7ACFD801B022896D82868A2
:103D90004007F7D42078C00646D5D8F80000DFF8F1
:103DA0009C92396800F03800A9F10409082812D063
:103DB000182805D101F00300012800E0CEE00AD068
:103DC000E0690028286820D040F080002860FEF7D5
:103DD00087FD064615E02868C00502D5E069802801
:103DE0007ED194F82010D9F8002022F07C5242EACB
:103DF0000161C9F8001017E0FEF772FD801B022870
:103E0000A0D82868C005F7D5EBE720F0800028602F
:103E1000FEF766FD064604E0FEF762FD801B022801
:103E200090D82868C005F7D42078000729D58348A2
:103E30006169643000298146016811D041F00101B7
:103E40000160FEF74DFD064605E000BFFEF748FDA8
:103E5000801B022888D8D9F800008007F6D510E02A
:103E600021F001010160FEF73BFD064605E000BFC1
:103E7000FEF736FD801B022870D8D9F800008007B5
:103E8000F6D42078800623D5A0690028286810D0B1
:103E900040F480502860FEF723FD064605E000BF91
:103EA000FEF71EFD801B022858D828688004F7D52D
:103EB0000EE020F480502860FEF712FD064604E074
:103EC000FEF70EFD801B022848D828688004F7D42E
:103ED0002078400751D5DFF86891D9F8001000E04C
:103EE00015E141F48071C9F80010FEF7F9FC0646AF
:103EF00005E000BFFEF7F4FC801B64282ED8D9F83B
:103F00000000C005F6D54D4EA068603601280AD0E5
:103F100008B1052813D0306820F001003060306807
:103F200020F0040002E0306840F001003060A0683A
:103F300041F2883A98B1FEF7D3FC81460AE0306836
:103F400040F004003060EEE7FEF7CAFCA0EB090188
:103F5000514503D830688007F6D50EE072E0FEF7D1
:103F6000BFFC814606E000BFFEF7BAFCA0EB0901EA
:103F7000514567D830688007F6D4606A00287CD045
:103F8000DFF8B8A0D8F800100AF1200A4FF6F87B45
:103F90000AF10408C1F3C2010329AAF104096DD092
:103FA0000228286820F08070286003D0FEF798FC73
:103FB000044681E0FEF794FC064604E0FEF790FC20
:103FC000801B022875D828688001F7D4E26A40F285
:103FD000F331386854F8283F884340EA0210184308
:103FE0003860217B4FF4FE0C22894FF0FE47208A77
:103FF0004902267D521E401EA1F5007189B2C2F30E
:1040000008021143761E0CEA00400143484607EAC5
:1040100006621143CAF80010D9F8001021F001011E
:10402000C9F80010D8F80030266A23EA0B0343EAE7
:10403000C601C8F80010D9F8001004E01044025876
:104040000048025835E0A26921F00C011143C9F87B
:1040500000100168E26921F002011143016001686A
:1040600041F480310160016841F400310160016870
:1040700041F480210160016801E06CE020E041F042
:1040800001010160286840F080702860FEF728FC7C
:10409000044604E0FEF724FC001B022809D8286827
:1040A0008001F7D557E000BFFEF71AFC001B02287D
:1040B00002D90320BDE8F09F28688001F4D44AE0CB
:1040C00039680128DAF8000021D0A26A01F0030360
:1040D00093421CD1E26AC1F305118A4217D1216BC8
:1040E000C0F30802491E8A4211D1616BC0F3462217
:1040F000491E91420BD1A16BC0F30642491E914269
:1041000005D1E16BC0F30660491E814201D0012058
:10411000D0E7A16C4646D8F80000C0F3CC0081423D
:1041200019D0D9F800004D4620F00100C9F8000070
:10413000FEF7D6FB4FEA0007FEF7D2FBB842FBD0F2
:10414000A26C306820EA0B0040EAC20030602868A8
:1041500040F0010028600020ACE700002DE9F041AC
:1041600004001D4616460F4603D0D4F8880018B147
:1041700008E00120BDE8F081002084F8840020469A
:1041800000F0A4FE2420C4F888002068016821F013
:1041900001010160A06A10B1204602F0E1F9204659
:1041A00002F0CCFA0128E5D0206871050D4A41EAF9
:1041B0000541836843F4804383602068836823F467
:1041C00000433B4383602068036813400B43036054
:1041D0002068016841F0010101602046BDE8F0411E
:1041E00002F022BAFFFF00FC7047704770470000E2
:1041F000F0B590F83C20012A43D0012280F83C2001
:10420000D1E90242204ECD6922F440722243D1E925
:10421000004322F480621A4322F400622243D1E96F
:10422000043422F480521A430B6B22F400522243CE
:104230000C8B22F480421A43036822F4702242EA73
:104240000442002422F08052B34242EA050202D026
:104250000E4DAB4210D10F8D22F4700CD1E90862E3
:10426000CD6A4CEA075121F08071314321F0007191
:10427000114321F000522A435A6480F83C40002048
:10428000F0BD0220F0BD000000000140000401402C
:10429000F0B590F83C20012A41D0224E012480F84C
:1042A0003C40022280F83D2002681F4D5368B24214
:1042B000D2F808C001D0AA4203D14F6823F470039A
:1042C0003B430F6823F070031F4357600268B242FC
:1042D00019D0B2F1804F16D0144B9A4213D0144B20
:1042E0009A4210D0134B9A420DD0AA420BD0124BD7
:1042F0009A4208D0114B9A4205D0114B9A4202D0F3
:10430000104B9A4204D189682CF0800319439160C4
:10431000002180F83D4080F83C100846F0BD0220A6
:10432000F0BD000000000140000401400004004016
:1043300000080040000C0040001800400040014010
:1043400000E0004000E4004010B5040003D094F801
:104350003D0010B107E0012010BD002084F83C00B2
:10436000204600F023F8022084F83D002068211D3B
:1043700001F0C6FE012084F8480084F83E0084F86D
:104380003F0084F8400084F8410084F8420084F83B
:10439000430084F8440084F8450084F8460084F81B
:1043A000470084F83D00002010BD000008B53A4ADF
:1043B00001683A4891420ED1016841F01001016054
:1043C00000680022052100F0100000903620FEF762
:1043D00059FB36205AE0324A91420ED1016841F031
:1043E0002001016000680022052100F020000090FB
:1043F0003720FEF747FB372048E02A4A91420ED18A
:10440000016841F08001016000680022052100F090
:10441000800000902C20FEF735FB2C2036E0224A4D
:1044200091420ED1016841F4807101600068002260
:10443000052100F4807000902D20FEF723FB2D2035
:1044400024E01648194A083091420ED1016841F41F
:104450000031016000680022052100F40030009066
:104460007520FEF70FFB752010E0114A914211D123
:10447000016841F48021016000680022052100F4F8
:10448000802000907620FEF7FDFA7620BDE80840F7
:10449000FEF7EABA08BD000000100040E8440258E8
:1044A00000140040001C0040002000400044014077
:1044B0000048014090F83D10012901D001207047CB
:1044C0001A4A022180F83D100168CB6843F00103CD
:1044D000CB60006890421AD0B0F1804F17D01449D9
:1044E000884214D01349884211D0134988420ED013
:1044F000124988420BD01249884208D0114988429B
:1045000005D01149884202D01049884207D18168FC
:104510000F4A1140062906D0B1F5803F03D001684B
:1045200041F00101016000207047000000000140DF
:104530000004004000080040000C0040000401405E
:10454000001800400040014000E0004000E400404E
:104550000700010070472DE9F0410446006800277C
:10456000C6680569A90713D5B10711D5FA1E0261FE
:1045700001212177206880698007204602D0FFF75B
:10458000E9FF04E000F0F8F8204600F0EDF92777A5
:10459000680716D5700714D5226802206FF0040151
:1045A000116120772068806910F4407F204602D096
:1045B000FFF7D0FF04E000F0DFF8204600F0D4F968
:1045C0002777280715D5300713D5226804206FF008
:1045D0000801116120772068C0698007204602D059
:1045E000FFF7B8FF04E000F0C7F8204600F0BCF980
:1045F0002777E80616D5F00614D5226808206FF054
:104600001001116120772068C06910F4407F2046B6
:1046100002D0FFF79FFF04E000F0AEF8204600F064
:10462000A3F92777E80708D0F00706D021686FF0D4
:1046300001000861204600F099F9280601D4A80479
:1046400008D5300606D521686FF40250086120466F
:10465000FFF7CBFDE80508D5300606D521686FF4D5
:10466000807008612046FFF7BFFD680608D5700618
:1046700006D521686FF040000861204600F0BAF9C5
:10468000A8060AD5B00608D521686FF02000086199
:104690002046BDE8F041FFF7A9BDBDE8F08100006C
:1046A00030B587B0044614216846FBF777FE2468CE
:1046B00000222B4D022329490120AC4211D10C6864
:1046C00044F010040C60096801F0100105914FF4EA
:1046D00008510091CDE90132CDE903202148694616
:1046E00025E0B4F1804F12D01F4D2048AC4222D1BA
:1046F0000C6844F002040C600968009301F00201A8
:10470000CDE901320392CDE9043169460FE00C682E
:1047100044F001040C60096801F0010105910521D4
:104720000091CDE90132CDE9032011486946FDF73A
:10473000C3FF07B030BD0F4DAC42FAD10C6844F056
:1047400002040C60096801F002010591E91300916F
:10475000CDE90132CDE903236946E8E7E044025898
:1047600000000140001002580004004000040258FC
:104770000000025800180040704770B5044690F8D9
:104780003C0000260D4601280BD0012084F83C0097
:104790000C2A4AD007DC82B1042A20D0082A06D18C
:1047A00031E0022070BD102A53D0142A63D00126B4
:1047B000002084F83C00304670BD206801F012FDF6
:1047C0002068816941F0080181612068816921F0D8
:1047D0000401816120682A698169114311E0206820
:1047E00001F052FD2068816941F400618161206817
:1047F000816921F48061816120682969826942EAC6
:1048000001218161D4E7206801F08AFD2068C16937
:1048100041F00801C1612068C16921F00401C16152
:1048200020682A69C169114311E0206801F0C4FDC4
:104830002068C16941F40061C1612068C16921F447
:104840008061C16120682969C26942EA0121C161B0
:10485000AEE7206801F0ECFD2068416D41F00801F1
:1048600041652068416D21F00401416520682A6995
:10487000416D114311E0206801F014FE2068416D84
:1048800041F4006141652068416D21F4806141651A
:1048900020682969426D42EA0121416588E710B527
:1048A000040003D094F83D0010B107E0012010BDD2
:1048B000002084F83C00204600F022F8022084F812
:1048C0003D002068211D01F01BFC012084F84800F8
:1048D00084F83E0084F83F0084F8400084F84100EA
:1048E00084F8420084F8430084F8440084F84500CA
:1048F00084F8460084F8470084F83D00002010BD8D
:1049000008B501681348814201D113480FE01348EC
:10491000B1F1804F0BD0124A914210D1016841F0A1
:1049200002010160006800F00200009008BD01680B
:1049300041F001010160006800F00100F5E7094A5B
:104940009142F3D1016841F040010160006800F03C
:104950004000EAE700000140F0440258E8440258F1
:1049600000040040001800407047000010B51949CD
:1049700004460068884201D1FDF7ECFF164A216821
:104980001648914203D10168491C016010BD144AC8
:10499000914203D14168491C416010BD114A9142C6
:1049A00003D18168491C816010BD0F4A914203D137
:1049B000C168491CC16010BD0C4A914203D1016914
:1049C000491C016110BD0A4A9142FBD14169491C51
:1049D000416110BD00E000400010004014000024C0
:1049E00000140040001C0040002000400044014032
:1049F00000480140704730B590F88410012918D064
:104A0000012280F884202421C0F88810002220246C
:104A100001680B680D6823F0005325F001050D6057
:104A2000426601680B60C0F8884080F88420104618
:104A300030BD022030BD7047704770B5044690F815
:104A4000840001281DD0012284F884202420C4F889
:104A5000880020680568026822F001020260206870
:104A6000826822F060620A438260204601F056FDAF
:104A70002268202100201560C4F8881084F8840082
:104A800070BD022070BD70B5044690F88400012806
:104A90001DD0012284F884202420C4F888002068D6
:104AA0000568026822F0010202602068826822F034
:104AB00060420A438260204601F030FD22682021D6
:104AC00000201560C4F8881084F8840070BD0220AE
:104AD00070BD7047704770472DE9F04107680025A9
:104AE000044640F60F030226F8693968BA6818428E
:104AF0000AD183067ED501F0200302F0805C53EAE0
:104B00000C0377D0616F74E1CF4BDFF840C31340E3
:104B100001EA0C0C53EA0C0C6CD05FEAC07C0CD0A0
:104B20005FEAC15C09D54FF0010CC7F820C0D4F88A
:104B3000907047F00107C4F89070870709D5D70730
:104B400007D027683E62D4F8906046F00406C4F8A7
:104B5000906046070AD5D60708D0276804263E622B
:104B6000D4F8906046F00206C4F8906006070CD5B1
:104B700001F020061E4308D0266808233362D4F8CB
:104B8000903043F00803C4F8903003050BD54B0177
:104B900009D526684FF400633362D4F8903043F0AF
:104BA0002003C4F89030D4F89030002B3DD080061C
:104BB00009D501F0200002F08051084303D0616F55
:104BC00009B1204688472168D4F8900089684906D1
:104BD00002D410F0280F2AD0204601F085FD20686D
:104BE000806840061ED52068083050E8001F21F07C
:104BF000400100E021E040E80012002AF3D1D4F89F
:104C0000800078B192490165D4F88000FCF7F4F88F
:104C100000280AD0D4F88000016D00E02046BDE8ED
:104C2000F04108472046FFF756FFBDE8F0812046D7
:104C3000FFF751FFC4F89050F7E7D4F86CC0202379
:104C4000BCF1010F7ED15FEAC06C7BD55FEAC16C1D
:104C500078D51020386220688068400673D5D4F873
:104C600080107C4A0868904234D07A4A18329042C8
:104C700030D0784A303290422CD0764A4832904236
:104C800028D0744A6032904224D0724A78329042DE
:104C900020D0704A903290421CD06E4AA832904286
:104CA00018D06D4A904215D06B4A1832904211D0FC
:104CB000694A303290420DD0674A4832904209D05A
:104CC000654A6032904205D0634A7832904201D002
:104CD000614A903240680004000CA6D0B4F85C2011
:104CE0008242A2D9A4F85E00C869B0F5807F2FD0B7
:104CF000216851E8000F20F4807041E80002002A8A
:104D0000F6D12068083050E8001F21F0010140E88A
:104D10000012002AF5D12068083050E8001F21F069
:104D2000400140E80012002AF5D1C4F88C30E56655
:104D3000216851E8000F20F0100041E80002002A2D
:104D4000F6D101E040E00BE0D4F88000FBF7A4FED0
:104D50002667B4F85C00B4F85E10401A81B22FE008
:104D6000B4F85C00B4F85E10B4F85E20401A81B26A
:104D7000002AB2D00029B0D0226852E8000F20F4F7
:104D8000907042E80007002FF6D1344F206800F100
:104D9000080050E8002F02EA070240E8002CBCF1AE
:104DA000000FF3D1C4F88C30E5666567206850E8E1
:104DB000002F22F0100240E80023002BF6D12667D6
:104DC0002046FFF738FE30E7C60209D5560207D560
:104DD0004FF4801038622046BDE8F041FFF77ABEFC
:104DE00006060AD501F0800602F40002164304D03C
:104DF000A16F00297FF412AF17E7420611D54A06CA
:104E00000FD52046026852E8001F21F0400142E819
:104E10000014002CF6D1C0F88830856700F06EFBD6
:104E200003E7020206D54A0004D52046BDE8F0415A
:104E3000FFF74FBEC001C6D50029C4DA2046BDE841
:104E4000F041FFF7F9BD000001000010200100044F
:104E5000D36600081000024010040240FEFFFFEF7E
:104E600010B5040003D0D4F8880010B107E0012089
:104E700010BD002084F88400204600F027F824208C
:104E8000C4F888002068016821F001010160A06A6F
:104E900010B1204601F064FB204601F04FFC0128D0
:104EA000E6D02068416821F4904141602068816823
:104EB00021F02A0181602068016841F00101016050
:104EC0002046BDE8104001F0AFBB00002DE9F04FD7
:104ED000B5B0044614212EA8FBF760FAB821684645
:104EE000FBF75CFAFF4D0021FF4A4FF48066206813
:104EF000083DDFF8F0B34FF4403790424FF002081E
:104F00004FF003094FF0400A7FD100201D9002228C
:104F1000CDE900206846FDF767FF08B1FBF773FC99
:104F2000DBF8001041F48011CBF80010DBF8000032
:104F300000F480103390286840F00400286028684E
:104F400000F004003390286840F0080028602868CA
:104F5000C3464FF0080800F0080000254FF48053C6
:104F6000CDE93280E1482EA9CDE92E3BCDE930597B
:104F7000FDF7A2FB0422DE48CDE92E2BCDE9305906
:104F80002EA9CDF8C880FDF797FBDFF868B3412361
:104F9000D94AB84658468BE82C00C0E90356CBF8EE
:104FA0001450CBF81850CBE90757CBF82450FCF736
:104FB000D9FB08B1FBF727FCDFF838934227C4F888
:104FC00080B009F17809CBF838404846CA4B18330D
:104FD000C0E90356C9F81450C9F8185089E8880484
:104FE000C9E90758C9F82450FCF7BCFB08B1FBF726
:104FF0000AFCC4F87C9000220521C9F8384035200D
:10500000FDF740FD352068E0FFE7BC4A904269D1DA
:1050100000221D920220CDE900026846FDF7E4FE61
:1050200008B1FBF7F0FBDBF8001041F08041CBF852
:105030000010DBF8000000F080403390286840F05A
:1050400010002860286801214FF4C075CDF8C49085
:1050500000F010002E950723CDE92F81CDE93230E5
:10506000A7482EA9FDF728FBDFF888920025A54A5E
:105070004F2309F1F009B846484689E82C00C0E9F9
:105080000356C9F81450C9F81850C9E90757C9F8A8
:105090002450FCF767FB08B1FBF7B5FB9A4F502291
:1050A000C4F88090C9F8384038469649C7E9035695
:1050B0007D611831BD61C7E907587D6287E8060444
:1050C000FCF750FB08B1FBF79EFBE76700220521C8
:1050D000BC635220FDF7D6FC5220FDF7C5FC35B06D
:1050E000BDE8F08F894A90426ED100201E910122C6
:1050F0008B46CDE900206846FDF776FE08B1FBF748
:1051000082FB78480830016841F0100101600068B6
:1051100000F010003390286840F0010028602868F3
:1051200001214FF4C065CDF8C49000F001002E9528
:105130000723CDE92F81CDE9323075482EA9FDF73F
:10514000BBFADFF8C49129236E4A5D4609F178095C
:10515000B846303A484689E82C00C0E903B6C9F899
:1051600014B0C9F818B0C9E907B7C9F824B0FCF7FA
:10517000F9FA08B1FBF747FBDFF88CB12A23C4F832
:1051800080900BF1F00BC9F8384058465D4A183A48
:10519000C0E90356CBF81450CBF818508BE80C0438
:1051A000CBE90758CBF82450FCF7DCFA08B1FBF741
:1051B0002AFBC4F87CB000220521CBF8384025201A
:1051C000FDF760FC252088E7524A904269D1002013
:1051D0001D900222CDE900206846FDF705FE08B1CA
:1051E000FBF711FBDBF8001041F40031CBF80010A5
:1051F000DBF8000000F400303390286840F008002D
:10520000286028680722002500F008007023CDE9F7
:105210003059CDE9322036482EA9CDE92E38FDF798
:105220004BFADFF8F4B02B23334AB84658466032C5
:105230008BE82C00C0E90356CBF81450CBF818507B
:10524000CBE90757CBF82450FCF78CFA08B1FBF7F1
:10525000DAFADFF8C4902C23C4F880B009F1780999
:10526000CBF838404846244A7832C0E90356C9F89A
:105270001450C9F8185089E80C04C9E90758C9F84E
:105280002450FCF76FFA08B1FBF7BDFAC4F87C9024
:1052900000220521C9F838402620FDF7F3FB26201F
:1052A0001BE71E4A90427DD10023684602221D93CF
:1052B000CDE90023FDF798FD08B1FBF7A4FADBF870
:1052C000001041F48021CBF80010DBF8000000F45E
:1052D00080203390286840F002002860286800F0A1
:1052E00002001DE0E8440258005000400008025847
:1052F000000C025888050024100402400078004089
:105300000010025870000240F00600240010014016
:1053100000000258004400405808002400480040A3
:105320003390286840F0080028602868C3464FF092
:10533000070800F0080000254FF48043CDE93280D3
:1053400065482EA9CDE92E3BCDE93059FDF7B4F9DA
:105350004FF440736148CDE92E3BCDE930592EA979
:10536000CDF8C880FDF7A8F9DFF874912D235D4AC8
:10537000B846484689E82C00C0E90356C9F81450DD
:10538000C9F81850C9E90757C9F82450FCF7EAF9D9
:1053900008B1FBF738FADFF848B1524A0BF1780B45
:1053A000183200E021E05846C4F88090C9F838402F
:1053B0002E23C0E90356CBF81450CBF818508BE8D5
:1053C0000C04CBE90758CBF82450FCF7CBF908B113
:1053D000FBF719FAC4F87CB000220521CBF838405D
:1053E0002720FDF74FFB272077E63F4A90427FF4C6
:1053F00076AE00221E9101238B466846CDE900322D
:10540000FDF7F2FC08B1FBF7FEF93848016841F0FE
:1054100080010160006800F080003390286840F04F
:105420001000286028682EA945464FF0010800F0BA
:1054300010003390042081E8210332902C48FDF7BE
:105440003BF92EA808210B23329380E82203284839
:105450002EA9FDF731F9DFF888807623254A08F177
:10546000F0084046C8F80020C0E9013BC0E903B697
:10547000C8F814B0C8F818B0C8E907B7C8F824B01D
:10548000FCF770F908B1FBF7BEF91B4D4FF0770C34
:10549000C4F88080C8F838402846164AC5F808A0E5
:1054A000C5E903B6C5F814B01832C5F818B0C5E997
:1054B00007B7C5F824B0C5E9002CFCF753F908B1CB
:1054C000FBF7A1F9E56700220521AC639C20FDF7FD
:1054D000D9FA9C2001E6000000040258000C025892
:1054E00048090024A0040240001C0140F044025876
:1054F00000100258A0000240B00A00247047FEE7E6
:105500001748002170B5154E022581600122066002
:105510001826C160202401740423417481744661FB
:10552000C0E90625C0E908528262C262C0E90C21C6
:105530000464C0E90E21C0E91131C0E91331C0E9AA
:105540001531C0E91714C0E91913FCF725FE00282E
:1055500003D0BDE87040FBF756B970BD00A0004015
:10556000300000241848002170B5164E02258160D5
:10557000012206601826C1602024017404234174AE
:1055800081744661C0E90625056240F20645426223
:105590008262C262C0E90C250464C0E90E21C0E940
:1055A0001131C0E91331C0E91531C0E91714C0E960
:1055B0001913FCF7F1FD002803D0BDE87040FBF79C
:1055C00022B970BD00A40040D0000024184800217A
:1055D00070B5164E02258160012206601826C16052
:1055E000202401740423417481744661C0E90625B6
:1055F000056240F6120542628262C262C0E90C2571
:105600000464C0E90E21C0E91131C0E91331C0E9D9
:105610001531C0E91714C0E91913FCF7BDFD0028C6
:1056200003D0BDE87040FBF7EEB870BD00D4004079
:1056300070010024F0B587B014216846FAF7AEFE79
:105640003648016841F010010160016801F0100165
:105650000591016841F004010160016801F0040155
:105660000591016841F080010160016801F080014D
:105670000591016841F001010160016801F001013B
:105680000591016841F002010160016801F0020129
:105690000591016841F00801016000680122204F76
:1056A0004EF2090100F0080005903846FDF712F9A6
:1056B0000024694601254FF460400090CDE9015473
:1056C00038460394FCF7F8FF032669460920CDE924
:1056D0000005CDE902463846FCF7EEFF4FF4A05036
:1056E0004FF488118DE813000E486946FCF7E4FF7B
:1056F00028020D4D02218DE8530069462846049486
:10570000FCF7DAFF4FF400406946CDE90004284673
:105710000294FCF7D1FF07B0F0BD0000E04402584E
:105720000008025800100258000002580A4840F6CB
:10573000FF71084B022210B50360C160C0E901216E
:10574000FDF7D4F8002803D0BDE81040FBF75BB8A4
:1057500010BD0000004800586C0E002410B58AB03F
:10576000002468461C21079408940994FAF716FE51
:105770001548C721EF22134BC0E90241046184613F
:10578000C0E90032FFF78BF808B1FBF73CF80E4890
:1057900007A907940994FEF77BFD08B1FBF733F8DE
:1057A0006020C8218DE8130007480422694604944C
:1057B000FEF7E3FF08B1FBF726F80348FEF770FF9A
:1057C0000AB010BD00180040F00C00240B4840F255
:1057D000E73210B50021084CEF23C0E90212016145
:1057E0008161C0E90043FEF7AFFD002803D0BDE8AA
:1057F0001040FBF708B810BD001C00403C0D002411
:105800000B4840F2E73210B50021084CEF23C0E905
:10581000021201618161C0E90043FEF795FD002895
:1058200003D0BDE81040FAF7EEBF10BD00200040E5
:10583000880D00240C4840F2E73210B50021094CD5
:10584000EF23C0E90212016141618161C0E90043B7
:10585000FEF77AFD002803D0BDE81040FAF7D3BF69
:1058600010BD000000440140D40D00240B4800216D
:105870004FF6FF72084B10B5C0E90031C0E90212C3
:10588000016141618161FEF75FFD002803D0BDE841
:105890001040FAF7B8BF10BD00480140200E0024A8
:1058A00010B598B000241C210DA8149415941694DA
:1058B000FAF774FD34216846FAF770FD2748EF22A5
:1058C000254940F2CF7380E81600C0E903344461F3
:1058D0008461FEF7E4FF08B1FAF795FF1F4814A9A9
:1058E000149415941694FEF7D3FC08B1FAF78BFFC5
:1058F0000DAA60204FF4FA6182E8130017480022D5
:105900000DA91094119412941394FEF736FF08B168
:10591000FAF779FF114808220DA9FEF72EFF08B10A
:10592000FAF771FF4FF400500094039401030194BF
:10593000CDE904400294CDE908410848694606943F
:105940000A940C94FEF754FC08B1FAF75CFF034884
:10595000FEF7A6FE18B010BD00000140740B002435
:1059600010B58AB0002468461C2107940894099455
:10597000FAF714FD1A4840F2CF71EF224FF080433E
:10598000C0E9024104618461C0E90032FEF787FF8B
:1059900008B1FAF738FF124807A907940994FEF7EF
:1059A00077FC08B1FAF72FFF60204FF4FA618DE819
:1059B00013000B48002269460494FEF7DEFE08B18E
:1059C000FAF721FF064808226946FEF7D6FE08B11D
:1059D000FAF719FF0248FEF763FE0AB010BD000097
:1059E000C00B002410B58AB0002468461C2107941F
:1059F00008940994FAF7D2FC164844F61F61EF2286
:105A0000134BC0E9024104618461C0E90032FEF732
:105A100046FF08B1FAF7F7FE0E4807A90794099464
:105A2000FEF736FC08B1FAF7EEFE60206946CDE9D4
:105A3000000408480C2202940494FEF79EFE08B16C
:105A4000FAF7E1FE0348FEF72BFE0AB010BD000096
:105A5000000400400C0C00243EB51048002440F225
:105A6000E7310D4BEF22009401940294C0E902410A
:105A70008461C0E90032FEF767FC08B1FAF7C3FEA3
:105A80000648694600940294FEF702FC002801D003
:105A9000FAF7B9FE3EBD000000100040580C00248B
:105AA0003EB51048002440F2E7310D4BEF22009440
:105AB00001940294C0E902418461C0E90032FEF71A
:105AC00043FC08B1FAF79FFE064869460094029429
:105AD000FEF7DEFB002801D0FAF795FE3EBD000080
